{
	"_format": "hh-sol-artifact-1",
	"contractName": "Staker",
	"sourceName": "contracts/Staker.sol",
	"abi": [
		{
			"inputs": [
				{
					"internalType": "contract Rengoku",
					"name": "_rengoku",
					"type": "address"
				}
			],
			"stateMutability": "nonpayable",
			"type": "constructor"
		},
		{
			"anonymous": false,
			"inputs": [
				{
					"indexed": true,
					"internalType": "address",
					"name": "previousOwner",
					"type": "address"
				},
				{
					"indexed": true,
					"internalType": "address",
					"name": "newOwner",
					"type": "address"
				}
			],
			"name": "OwnershipTransferred",
			"type": "event"
		},
		{
			"inputs": [],
			"name": "buyToken",
			"outputs": [],
			"stateMutability": "payable",
			"type": "function"
		},
		{
			"inputs": [],
			"name": "claimRewards",
			"outputs": [],
			"stateMutability": "nonpayable",
			"type": "function"
		},
		{
			"inputs": [],
			"name": "getAmountStaked",
			"outputs": [
				{
					"internalType": "uint256",
					"name": "",
					"type": "uint256"
				}
			],
			"stateMutability": "view",
			"type": "function"
		},
		{
			"inputs": [],
			"name": "getTokenBalance",
			"outputs": [
				{
					"internalType": "uint256",
					"name": "",
					"type": "uint256"
				}
			],
			"stateMutability": "view",
			"type": "function"
		},
		{
			"inputs": [
				{
					"internalType": "address",
					"name": "",
					"type": "address"
				}
			],
			"name": "hasStaked",
			"outputs": [
				{
					"internalType": "bool",
					"name": "",
					"type": "bool"
				}
			],
			"stateMutability": "view",
			"type": "function"
		},
		{
			"inputs": [],
			"name": "issueToken",
			"outputs": [],
			"stateMutability": "nonpayable",
			"type": "function"
		},
		{
			"inputs": [
				{
					"internalType": "uint256",
					"name": "newPrice",
					"type": "uint256"
				}
			],
			"name": "modifyTokenBuyPrice",
			"outputs": [],
			"stateMutability": "nonpayable",
			"type": "function"
		},
		{
			"inputs": [],
			"name": "owner",
			"outputs": [
				{
					"internalType": "address",
					"name": "",
					"type": "address"
				}
			],
			"stateMutability": "view",
			"type": "function"
		},
		{
			"inputs": [
				{
					"internalType": "uint256",
					"name": "index",
					"type": "uint256"
				}
			],
			"name": "removeElementfromStakers",
			"outputs": [],
			"stateMutability": "nonpayable",
			"type": "function"
		},
		{
			"inputs": [],
			"name": "renounceOwnership",
			"outputs": [],
			"stateMutability": "nonpayable",
			"type": "function"
		},
		{
			"inputs": [
				{
					"internalType": "uint256",
					"name": "numOfTokens",
					"type": "uint256"
				}
			],
			"name": "stakeToken",
			"outputs": [],
			"stateMutability": "nonpayable",
			"type": "function"
		},
		{
			"inputs": [
				{
					"internalType": "uint256",
					"name": "",
					"type": "uint256"
				}
			],
			"name": "stakers",
			"outputs": [
				{
					"internalType": "address",
					"name": "",
					"type": "address"
				}
			],
			"stateMutability": "view",
			"type": "function"
		},
		{
			"inputs": [
				{
					"internalType": "address",
					"name": "",
					"type": "address"
				}
			],
			"name": "stakingBalance",
			"outputs": [
				{
					"internalType": "uint256",
					"name": "",
					"type": "uint256"
				}
			],
			"stateMutability": "view",
			"type": "function"
		},
		{
			"inputs": [],
			"name": "tokenBuyPrice",
			"outputs": [
				{
					"internalType": "uint256",
					"name": "",
					"type": "uint256"
				}
			],
			"stateMutability": "view",
			"type": "function"
		},
		{
			"inputs": [
				{
					"internalType": "address",
					"name": "newOwner",
					"type": "address"
				}
			],
			"name": "transferOwnership",
			"outputs": [],
			"stateMutability": "nonpayable",
			"type": "function"
		},
		{
			"inputs": [
				{
					"internalType": "uint256",
					"name": "numOfTokens",
					"type": "uint256"
				}
			],
			"name": "unstakeToken",
			"outputs": [],
			"stateMutability": "nonpayable",
			"type": "function"
		}
	],
	"bytecode": "0x608060405260646004553480156200001657600080fd5b506040516200223a3803806200223a83398181016040528101906200003c919062000338565b6200005c620000506200023e60201b60201c565b6200024660201b60201c565b80600260006101000a81548173ffffffffffffffffffffffffffffffffffffffff021916908373ffffffffffffffffffffffffffffffffffffffff16021790555033600160006101000a81548173ffffffffffffffffffffffffffffffffffffffff021916908373ffffffffffffffffffffffffffffffffffffffff1602179055506000600260009054906101000a900473ffffffffffffffffffffffffffffffffffffffff1673ffffffffffffffffffffffffffffffffffffffff166332424aa36040518163ffffffff1660e01b815260040160206040518083038186803b1580156200014957600080fd5b505afa1580156200015e573d6000803e3d6000fd5b505050506040513d601f19601f8201168201806040525081019062000184919062000364565b9050600260009054906101000a900473ffffffffffffffffffffffffffffffffffffffff1673ffffffffffffffffffffffffffffffffffffffff16634e6ec2473383600a620001d491906200043a565b6103e8620001e3919062000577565b6040518363ffffffff1660e01b815260040162000202929190620003b2565b600060405180830381600087803b1580156200021d57600080fd5b505af115801562000232573d6000803e3d6000fd5b505050505050620006a7565b600033905090565b60008060009054906101000a900473ffffffffffffffffffffffffffffffffffffffff169050816000806101000a81548173ffffffffffffffffffffffffffffffffffffffff021916908373ffffffffffffffffffffffffffffffffffffffff1602179055508173ffffffffffffffffffffffffffffffffffffffff168173ffffffffffffffffffffffffffffffffffffffff167f8be0079c531659141344cd1fd0a4f28419497f9722a3daafe3b4186f6b6457e060405160405180910390a35050565b6000815190506200031b8162000673565b92915050565b60008151905062000332816200068d565b92915050565b6000602082840312156200034b57600080fd5b60006200035b848285016200030a565b91505092915050565b6000602082840312156200037757600080fd5b6000620003878482850162000321565b91505092915050565b6200039b81620005d8565b82525050565b620003ac8162000620565b82525050565b6000604082019050620003c9600083018562000390565b620003d86020830184620003a1565b9392505050565b6000808291508390505b6001851115620004315780860481111562000409576200040862000637565b5b6001851615620004195780820291505b8081029050620004298562000666565b9450620003e9565b94509492505050565b6000620004478262000620565b915062000454836200062a565b9250620004837fffffffffffffffffffffffffffffffffffffffffffffffffffffffffffffffff84846200048b565b905092915050565b6000826200049d576001905062000570565b81620004ad576000905062000570565b8160018114620004c65760028114620004d15762000507565b600191505062000570565b60ff841115620004e657620004e562000637565b5b8360020a9150848211156200050057620004ff62000637565b5b5062000570565b5060208310610133831016604e8410600b8410161715620005415782820a9050838111156200053b576200053a62000637565b5b62000570565b620005508484846001620003df565b925090508184048111156200056a576200056962000637565b5b81810290505b9392505050565b6000620005848262000620565b9150620005918362000620565b9250817fffffffffffffffffffffffffffffffffffffffffffffffffffffffffffffffff0483118215151615620005cd57620005cc62000637565b5b828202905092915050565b6000620005e58262000600565b9050919050565b6000620005f982620005d8565b9050919050565b600073ffffffffffffffffffffffffffffffffffffffff82169050919050565b6000819050919050565b600060ff82169050919050565b7f4e487b7100000000000000000000000000000000000000000000000000000000600052601160045260246000fd5b60008160011c9050919050565b6200067e81620005ec565b81146200068a57600080fd5b50565b62000698816200062a565b8114620006a457600080fd5b50565b611b8380620006b76000396000f3fe6080604052600436106100f35760003560e01c8063a48217191161008a578063cda6b84711610059578063cda6b847146102bd578063dbf9f652146102e6578063f2fde38b14610311578063fd5e6dd11461033a576100f3565b8063a482171914610222578063a9bdbf891461022c578063ba354dc914610257578063c93c8f3414610280576100f3565b806382b2e257116100c657806382b2e2571461018c578063834dc984146101b75780638da5cb5b146101e0578063a1ee8c781461020b576100f3565b80632cfb6688146100f8578063372500ab1461012157806345bc78ab14610138578063715018a614610175575b600080fd5b34801561010457600080fd5b5061011f600480360381019061011a91906114ef565b610377565b005b34801561012d57600080fd5b506101366105eb565b005b34801561014457600080fd5b5061015f600480360381019061015a919061149d565b610710565b60405161016c9190611796565b60405180910390f35b34801561018157600080fd5b5061018a610728565b005b34801561019857600080fd5b506101a16107b0565b6040516101ae9190611796565b60405180910390f35b3480156101c357600080fd5b506101de60048036038101906101d991906114ef565b610862565b005b3480156101ec57600080fd5b506101f56108e8565b6040516102029190611640565b60405180910390f35b34801561021757600080fd5b50610220610911565b005b61022a610b8e565b005b34801561023857600080fd5b50610241610c38565b60405161024e9190611796565b60405180910390f35b34801561026357600080fd5b5061027e600480360381019061027991906114ef565b610c7f565b005b34801561028c57600080fd5b506102a760048036038101906102a2919061149d565b610e8f565b6040516102b491906116bb565b60405180910390f35b3480156102c957600080fd5b506102e460048036038101906102df91906114ef565b610eaf565b005b3480156102f257600080fd5b506102fb611240565b6040516103089190611796565b60405180910390f35b34801561031d57600080fd5b506103386004803603810190610333919061149d565b611246565b005b34801561034657600080fd5b50610361600480360381019061035c91906114ef565b61133e565b60405161036e9190611640565b60405180910390f35b600560003373ffffffffffffffffffffffffffffffffffffffff1673ffffffffffffffffffffffffffffffffffffffff168152602001908152602001600020548111156103f9576040517f08c379a00000000000000000000000000000000000000000000000000000000081526004016103f0906116f6565b60405180910390fd5b600260009054906101000a900473ffffffffffffffffffffffffffffffffffffffff1673ffffffffffffffffffffffffffffffffffffffff1663a9059cbb33836040518363ffffffff1660e01b8152600401610456929190611692565b602060405180830381600087803b15801561047057600080fd5b505af1158015610484573d6000803e3d6000fd5b505050506040513d601f19601f820116820180604052508101906104a891906114c6565b5080600560003373ffffffffffffffffffffffffffffffffffffffff1673ffffffffffffffffffffffffffffffffffffffff16815260200190815260200160002060008282546104f891906118a3565b925050819055506000600560003373ffffffffffffffffffffffffffffffffffffffff1673ffffffffffffffffffffffffffffffffffffffff1681526020019081526020016000205414156105e85761058f600760003373ffffffffffffffffffffffffffffffffffffffff1673ffffffffffffffffffffffffffffffffffffffff16815260200190815260200160002054610c7f565b6000600660003373ffffffffffffffffffffffffffffffffffffffff1673ffffffffffffffffffffffffffffffffffffffff16815260200190815260200160002060006101000a81548160ff0219169083151502179055505b50565b6000600560003373ffffffffffffffffffffffffffffffffffffffff1673ffffffffffffffffffffffffffffffffffffffff168152602001908152602001600020541161066d576040517f08c379a000000000000000000000000000000000000000000000000000000000815260040161066490611756565b60405180910390fd5b6064600560003373ffffffffffffffffffffffffffffffffffffffff1673ffffffffffffffffffffffffffffffffffffffff168152602001908152602001600020546106b99190611818565b600560003373ffffffffffffffffffffffffffffffffffffffff1673ffffffffffffffffffffffffffffffffffffffff168152602001908152602001600020600082825461070791906117c2565b92505081905550565b60056020528060005260406000206000915090505481565b61073061137d565b73ffffffffffffffffffffffffffffffffffffffff1661074e6108e8565b73ffffffffffffffffffffffffffffffffffffffff16146107a4576040517f08c379a000000000000000000000000000000000000000000000000000000000815260040161079b90611736565b60405180910390fd5b6107ae6000611385565b565b6000600260009054906101000a900473ffffffffffffffffffffffffffffffffffffffff1673ffffffffffffffffffffffffffffffffffffffff166370a08231336040518263ffffffff1660e01b815260040161080d9190611640565b60206040518083038186803b15801561082557600080fd5b505afa158015610839573d6000803e3d6000fd5b505050506040513d601f19601f8201168201806040525081019061085d9190611518565b905090565b61086a61137d565b73ffffffffffffffffffffffffffffffffffffffff166108886108e8565b73ffffffffffffffffffffffffffffffffffffffff16146108de576040517f08c379a00000000000000000000000000000000000000000000000000000000081526004016108d590611736565b60405180910390fd5b8060048190555050565b60008060009054906101000a900473ffffffffffffffffffffffffffffffffffffffff16905090565b61091961137d565b73ffffffffffffffffffffffffffffffffffffffff166109376108e8565b73ffffffffffffffffffffffffffffffffffffffff161461098d576040517f08c379a000000000000000000000000000000000000000000000000000000000815260040161098490611736565b60405180910390fd5b60005b600380549050811015610b8b57600260009054906101000a900473ffffffffffffffffffffffffffffffffffffffff1673ffffffffffffffffffffffffffffffffffffffff166323b872dd600160009054906101000a900473ffffffffffffffffffffffffffffffffffffffff1660038481548110610a38577f4e487b7100000000000000000000000000000000000000000000000000000000600052603260045260246000fd5b9060005260206000200160009054906101000a900473ffffffffffffffffffffffffffffffffffffffff166005600060038781548110610aa1577f4e487b7100000000000000000000000000000000000000000000000000000000600052603260045260246000fd5b9060005260206000200160009054906101000a900473ffffffffffffffffffffffffffffffffffffffff1673ffffffffffffffffffffffffffffffffffffffff1673ffffffffffffffffffffffffffffffffffffffff168152602001908152602001600020546040518463ffffffff1660e01b8152600401610b259392919061165b565b602060405180830381600087803b158015610b3f57600080fd5b505af1158015610b53573d6000803e3d6000fd5b505050506040513d601f19601f82011682018060405250810190610b7791906114c6565b508080610b839061191f565b915050610990565b50565b6000339050600060045434610ba39190611849565b9050600260009054906101000a900473ffffffffffffffffffffffffffffffffffffffff1673ffffffffffffffffffffffffffffffffffffffff166368f8fc1083836040518363ffffffff1660e01b8152600401610c02929190611692565b600060405180830381600087803b158015610c1c57600080fd5b505af1158015610c30573d6000803e3d6000fd5b505050505050565b6000600560003373ffffffffffffffffffffffffffffffffffffffff1673ffffffffffffffffffffffffffffffffffffffff16815260200190815260200160002054905090565b60036001600380549050610c9391906118a3565b81548110610cca577f4e487b7100000000000000000000000000000000000000000000000000000000600052603260045260246000fd5b9060005260206000200160009054906101000a900473ffffffffffffffffffffffffffffffffffffffff1660038281548110610d2f577f4e487b7100000000000000000000000000000000000000000000000000000000600052603260045260246000fd5b9060005260206000200160006101000a81548173ffffffffffffffffffffffffffffffffffffffff021916908373ffffffffffffffffffffffffffffffffffffffff160217905550806007600060038481548110610db6577f4e487b7100000000000000000000000000000000000000000000000000000000600052603260045260246000fd5b9060005260206000200160009054906101000a900473ffffffffffffffffffffffffffffffffffffffff1673ffffffffffffffffffffffffffffffffffffffff1673ffffffffffffffffffffffffffffffffffffffff168152602001908152602001600020819055506003805480610e57577f4e487b7100000000000000000000000000000000000000000000000000000000600052603160045260246000fd5b6001900381819060005260206000200160006101000a81549073ffffffffffffffffffffffffffffffffffffffff0219169055905550565b60066020528060005260406000206000915054906101000a900460ff1681565b600260009054906101000a900473ffffffffffffffffffffffffffffffffffffffff1673ffffffffffffffffffffffffffffffffffffffff166370a08231336040518263ffffffff1660e01b8152600401610f0a9190611640565b60206040518083038186803b158015610f2257600080fd5b505afa158015610f36573d6000803e3d6000fd5b505050506040513d601f19601f82011682018060405250810190610f5a9190611518565b811115610f9c576040517f08c379a0000000000000000000000000000000000000000000000000000000008152600401610f9390611776565b60405180910390fd5b60008111610fdf576040517f08c379a0000000000000000000000000000000000000000000000000000000008152600401610fd690611716565b60405180910390fd5b600260009054906101000a900473ffffffffffffffffffffffffffffffffffffffff1673ffffffffffffffffffffffffffffffffffffffff166323b872dd3330846040518463ffffffff1660e01b815260040161103e9392919061165b565b602060405180830381600087803b15801561105857600080fd5b505af115801561106c573d6000803e3d6000fd5b505050506040513d601f19601f8201168201806040525081019061109091906114c6565b5080600560003373ffffffffffffffffffffffffffffffffffffffff1673ffffffffffffffffffffffffffffffffffffffff16815260200190815260200160002060008282546110e091906117c2565b92505081905550600660003373ffffffffffffffffffffffffffffffffffffffff1673ffffffffffffffffffffffffffffffffffffffff16815260200190815260200160002060009054906101000a900460ff1661123d57600380549050600760003373ffffffffffffffffffffffffffffffffffffffff1673ffffffffffffffffffffffffffffffffffffffff168152602001908152602001600020819055506003339080600181540180825580915050600190039060005260206000200160009091909190916101000a81548173ffffffffffffffffffffffffffffffffffffffff021916908373ffffffffffffffffffffffffffffffffffffffff1602179055506001600660003373ffffffffffffffffffffffffffffffffffffffff1673ffffffffffffffffffffffffffffffffffffffff16815260200190815260200160002060006101000a81548160ff0219169083151502179055505b50565b60045481565b61124e61137d565b73ffffffffffffffffffffffffffffffffffffffff1661126c6108e8565b73ffffffffffffffffffffffffffffffffffffffff16146112c2576040517f08c379a00000000000000000000000000000000000000000000000000000000081526004016112b990611736565b60405180910390fd5b600073ffffffffffffffffffffffffffffffffffffffff168173ffffffffffffffffffffffffffffffffffffffff161415611332576040517f08c379a0000000000000000000000000000000000000000000000000000000008152600401611329906116d6565b60405180910390fd5b61133b81611385565b50565b6003818154811061134e57600080fd5b906000526020600020016000915054906101000a900473ffffffffffffffffffffffffffffffffffffffff1681565b600033905090565b60008060009054906101000a900473ffffffffffffffffffffffffffffffffffffffff169050816000806101000a81548173ffffffffffffffffffffffffffffffffffffffff021916908373ffffffffffffffffffffffffffffffffffffffff1602179055508173ffffffffffffffffffffffffffffffffffffffff168173ffffffffffffffffffffffffffffffffffffffff167f8be0079c531659141344cd1fd0a4f28419497f9722a3daafe3b4186f6b6457e060405160405180910390a35050565b60008135905061145881611b08565b92915050565b60008151905061146d81611b1f565b92915050565b60008135905061148281611b36565b92915050565b60008151905061149781611b36565b92915050565b6000602082840312156114af57600080fd5b60006114bd84828501611449565b91505092915050565b6000602082840312156114d857600080fd5b60006114e68482850161145e565b91505092915050565b60006020828403121561150157600080fd5b600061150f84828501611473565b91505092915050565b60006020828403121561152a57600080fd5b600061153884828501611488565b91505092915050565b61154a816118d7565b82525050565b611559816118e9565b82525050565b600061156c6026836117b1565b9150611577826119c6565b604082019050919050565b600061158f602c836117b1565b915061159a82611a15565b604082019050919050565b60006115b2601e836117b1565b91506115bd82611a64565b602082019050919050565b60006115d56020836117b1565b91506115e082611a8d565b602082019050919050565b60006115f8601b836117b1565b915061160382611ab6565b602082019050919050565b600061161b6011836117b1565b915061162682611adf565b602082019050919050565b61163a81611915565b82525050565b60006020820190506116556000830184611541565b92915050565b60006060820190506116706000830186611541565b61167d6020830185611541565b61168a6040830184611631565b949350505050565b60006040820190506116a76000830185611541565b6116b46020830184611631565b9392505050565b60006020820190506116d06000830184611550565b92915050565b600060208201905081810360008301526116ef8161155f565b9050919050565b6000602082019050818103600083015261170f81611582565b9050919050565b6000602082019050818103600083015261172f816115a5565b9050919050565b6000602082019050818103600083015261174f816115c8565b9050919050565b6000602082019050818103600083015261176f816115eb565b9050919050565b6000602082019050818103600083015261178f8161160e565b9050919050565b60006020820190506117ab6000830184611631565b92915050565b600082825260208201905092915050565b60006117cd82611915565b91506117d883611915565b9250827fffffffffffffffffffffffffffffffffffffffffffffffffffffffffffffffff0382111561180d5761180c611968565b5b828201905092915050565b600061182382611915565b915061182e83611915565b92508261183e5761183d611997565b5b828204905092915050565b600061185482611915565b915061185f83611915565b9250817fffffffffffffffffffffffffffffffffffffffffffffffffffffffffffffffff048311821515161561189857611897611968565b5b828202905092915050565b60006118ae82611915565b91506118b983611915565b9250828210156118cc576118cb611968565b5b828203905092915050565b60006118e2826118f5565b9050919050565b60008115159050919050565b600073ffffffffffffffffffffffffffffffffffffffff82169050919050565b6000819050919050565b600061192a82611915565b91507fffffffffffffffffffffffffffffffffffffffffffffffffffffffffffffffff82141561195d5761195c611968565b5b600182019050919050565b7f4e487b7100000000000000000000000000000000000000000000000000000000600052601160045260246000fd5b7f4e487b7100000000000000000000000000000000000000000000000000000000600052601260045260246000fd5b7f4f776e61626c653a206e6577206f776e657220697320746865207a65726f206160008201527f6464726573730000000000000000000000000000000000000000000000000000602082015250565b7f596f7520686176656e2774207374616b656420757020746f207468697320616d60008201527f6f756e74206265666f72652e0000000000000000000000000000000000000000602082015250565b7f537570706c792076616c75652067726561746572207468616e207a65726f0000600082015250565b7f4f776e61626c653a2063616c6c6572206973206e6f7420746865206f776e6572600082015250565b7f596f7520646f6e2774206861766520746f6b656e207374616b65640000000000600082015250565b7f4e6f7420656e6f75676820746f6b656e73000000000000000000000000000000600082015250565b611b11816118d7565b8114611b1c57600080fd5b50565b611b28816118e9565b8114611b3357600080fd5b50565b611b3f81611915565b8114611b4a57600080fd5b5056fea2646970667358221220dc2c060bfa4d37ff5862eab4552b12ed648bb9db7452af6fa15d81bd088a75dc64736f6c63430008040033",
	"linkReferences": {},
	"deployedLinkReferences": {}
}